S01600007761736865725F6D616368696E652E7372656350
S11300000C9434000C94E1000C9451000C945100B5
S11300100C9451000C9451000C9451000C94510018
S11300200C9451000C9451000C9451000C94C90090
S11300300C9451000C9451000C9451000C945100F8
S11300400C9451000C9451000C9451000C945100E8
S11300500C9451000C9451000C9451000C945100D8
S11300600C9451000C94510011241FBECFEFD8E022
S1130070DEBFCDBF12E0A0E0B1E0E6EDFAE002C0E1
S113008005900D92AC31B107D9F722E0ACE1B2E0B2
S113009001C01D92AE31B207E1F70E9415010C9424
S11300A069050C9400009C0140E050E060E271EAB4
S11300B087E090E00E945D02215031093093C50031
S11300C02093C40088E18093C10086E08093C2003D
S11300D00895E0ECF0E0908195FFFDCF8093C60099
S11300E00895CF93DF93EC018881882331F0219622
S11300F00E94690089918111FBCF8DE00E94690003
S11301008AE00E946900DF91CF91089583E884BD5D
S113011082E085BD569A089580E480937C0086E849
S113012080937A000895ECE7F0E09081987F892B22
S11301308083EAE7F0E0808180648083808186FDAB
S1130140FDCF8091780090917900089588E08093A4
S1130150810082E080936F00789408959C01220FBF
S1130160331F220F331F220F331F281B390B21503B
S113017031093093890020938800109285001092F1
S1130180840010921D02E1E8F0E0808185608083A4
S113019008951F920F920FB60F9211248F93EF932D
S11301A0FF9381E080931D02E1E8F0E080818A7F83
S11301B08083FF91EF918F910F900FBE0F901F904E
S11301C018951F920F920FB60F9211242F933F93FD
S11301D04F935F936F937F938F939F93AF93BF934B
S11301E0EF93FF9380E091E00E94710084E191E03D
S11301F00E94710080E285B988B118B88BB11BB830
S11302005C9881E080931C02FF91EF91BF91AF91C4
S11302109F918F917F916F915F914F913F912F911A
S11302200F900FBE0F901F901895CF93DF93CDB70B
S1130230DEB7E2970FB6F894DEBF0FBECDBF80E8FD
S113024095E20E9453000E9486000E948C000E9446
S1130250A6008BEF84B98FEF8AB98EE787B95298DD
S113026055985D9A5A9AE9E6F0E08081826080832D
S1130270E89A7894D12C05EB11E0CE0101967C012B
S1130280B82ECF2C80911C02882339F08DE291E0A6
S11302900E94710010921C02F5CF4D99F3CF2D9856
S11302A08FE491E00E947100289A2C9A449A8CE57C
S11302B091E00E94710080ED97E00E94AE0004C0BE
S11302C080911C02811104C080911D028823C1F316
S11302D080911C028111D6CF2898449887E691E03A
S11302E00E947100299A459A83E791E00E94710067
S11302F080ED97E00E94AE0004C080911C02811141
S113030004C080911D028823C1F380911C028111D5
S1130310B9CF299845988EE791E00E9471002F9AF1
S1130320439A8AE891E00E94710080ED97E00E9470
S1130330AE0004C080911C02811104C080911D0292
S11303408823C1F380911C0281119CCF2F9843987C
S113035085E991E00E94710081EA91E00E947100B8
S113036088E893E10E94AE0001C0D82C80911C0261
S1130370811127C00E9493004C019694879496940F
S11303808794A82CD814B1F087BC940133273F93E9
S11303902F939F938F931F930F93FF92EF920E943B
S11303A07F028B2D9C2D0E9471000FB6F894DEBF46
S11303B00FBECDBF419A429880911D028823A9F2B5
S11303C0DA2C80911C0281115DCF86EC91E00E94B1
S11303D0710088E893E10E94AE0001C0D82C80919E
S11303E01C02811127C00E9493004C0196948794AB
S11303F096948794A82CD814B1F087BC9401332721
S11304003F932F939F938F931F930F93FF92EF929A
S11304100E947F028B2D9C2D0E9471000FB6F894D0
S1130420DEBF0FBECDBF429A419880911D02882342
S1130430A9F2DA2C80911C02811124CF41984298B0
S11304402B9A2E9A8AED91E00E94710088E893E13C
S11304500E94AE0004C080911C02811104C08091EE
S11304601D028823C1F380911C0281110BCF2B98AC
S11304702E988AEE91E00E9471005C9A8BEF91E0D5
S11304800E94710088EE93E00E94AE0004C0809147
S11304901C02811104C080911D028823C1F3809144
S11304A01C028111EFCE5C9885E092E00E947100FD
S11304B080E192E00E947100E5CEA1E21A2EAA1B0F
S11304C0BB1BFD010DC0AA1FBB1FEE1FFF1FA21700
S11304D0B307E407F50720F0A21BB30BE40BF50BFD
S11304E0661F771F881F991F1A9469F76095709586
S11304F0809590959B01AC01BD01CF010895AEE0BC
S1130500B0E0E5E8F2E00C9440050D891E8986E030
S11305108C831A8309838FEF9FE79E838D83AE01BB
S1130520475E5F4F6F89788DCE0101960E94A102CC
S1130530EF81F885E00FF11F10822E96E4E00C9411
S11305405C05ABE0B0E0E7EAF2E00C9432056C0144
S11305507B018A01FC0117821682838181FFCCC151
S1130560CE0101963C01F6019381F70193FD85913B
S113057093FF81917F01882309F4BAC1853239F44C
S113058093FD859193FF81917F01853229F4B60112
S113059090E00E949804E7CF912C212C312CFFE1AC
S11305A0F315D8F08B3279F038F4803279F0833255
S11305B0A1F4232D20611DC08D3261F0803369F4D4
S11305C0232D216016C0832D8260382EE32DE46034
S11305D03E2E2AC0F32DF8601DC037FC2DC020ED3F
S11305E0280F2A3040F08E32B9F436FC81C1232D15
S11305F02064322E19C036FE06C08AE0989E200D73
S11306001124922E11C0EAE02E9E200D1124222ED8
S1130610F32DF0623F2E08C08C3621F4832D8068C0
S1130620382E02C0883641F4F70193FD859193FF7B
S113063081917F018111B3CF982F9F7D9554933081
S113064028F40C5F1F4F9FE399830DC0833631F06C
S1130650833771F0833509F059C021C0F8018081D6
S113066089830E5F1F4F88248394912C530113C0F8
S11306702801F2E04F0E511CF801A080B18036FE33
S113068003C0692D70E002C06FEF7FEFC5010E94C7
S11306908D044C018201F32DFF773F2E16C02801F3
S11306A022E0420E511CF801A080B18036FE03C046
S11306B0692D70E002C06FEF7FEFC5010E948204D4
S11306C04C01F32DF0683F2E820133FC1BC0822DB8
S11306D090E088169906B0F4B60180E290E00E949A
S11306E098042A94F4CFF50137FC859137FE819163
S11306F05F01B60190E00E94980421102A9421E041
S1130700821A91088114910471F7E8C0843611F0BB
S1130710893641F5F80137FE07C060817181828115
S113072093810C5F1F4F08C060817181072E000CFC
S1130730880B990B0E5F1F4FF32DFF763F2E97FF0B
S113074009C090958095709561957F4F8F4F9F4F0D
S1130750F0683F2E2AE030E0A3010E94D404882EE2
S1130760861845C0853731F4232D2F7EB22E2AE01A
S113077030E025C0932D997FB92E8F36C1F018F43F
S1130780883579F0B5C0803719F0883721F0B0C0CA
S1130790E92FE061BE2EB4FE0DC0FB2DF460BF2E28
S11307A009C034FE0AC0292F2660B22E06C028E0F4
S11307B030E005C020E130E002C020E132E0F80181
S11307C0B7FE07C060817181828193810C5F1F4FE6
S11307D006C06081718180E090E00E5F1F4FA3012D
S11307E00E94D404882E8618FB2DFF773F2E36FEF8
S11307F00DC0232D2E7FA22E891458F434FE0BC075
S113080032FC09C0832D8E7EA82E05C0B82CA32CE3
S113081003C0B82C01C0B92CA4FE0FC0FE01E80D22
S1130820F11D8081803321F49A2D997EA92E09C06F
S1130830A2FE06C0B394B39404C08A2D867809F04E
S1130840B394A3FC11C0A0FE06C0B21488F4280C13
S1130850922C9B180EC0B21460F4B60180E290E0B2
S11308600E949804B394F7CFB21418F42B1802C062
S1130870982C212CA4FE10C0B60180E390E00E94C5
S11308809804A2FE17C0A1FC03C088E790E002C050
S113089088E590E0B6010CC08A2D867859F0A1FE57
S11308A002C08BE201C080E2A7FC8DE2B60190E0B9
S11308B00E949804891438F4B60180E390E00E9401
S11308C098049A94F7CF8A94F301E80DF11D80817E
S11308D0B60190E00E9498048110F5CF222009F41B
S11308E042CEB60180E290E00E9498042A94F6CFAA
S11308F0F6018681978102C08FEF9FEF2B96E2E18C
S11309000C944E05FC010590615070400110D8F71D
S1130910809590958E0F9F1F0895FC016150704043
S113092001900110D8F7809590958E0F9F1F089520
S11309300F931F93CF93DF93FB01238121FD03C00A
S11309408FEF9FEF2CC022FF16C046815781248170
S113095035814217530744F4A081B1819D012F5F73
S11309603F4F318320838C93268137812F5F3F4F04
S11309703783268314C08B01EC01FB010084F185CD
S1130980E02D0995892BE1F6D80116968D919C915D
S11309901797019617969C938E931697CE01DF9125
S11309A0CF911F910F910895FA01AA27283051F190
S11309B0203181F1E8946F936E7F6E5F7F4F8F4F8C
S11309C09F4FAF4FB1E03ED0B4E03CD0670F781FEB
S11309D0891F9A1FA11D680F791F8A1F911DA11DD0
S11309E06A0F711D811D911DA11D20D009F4689409
S11309F03F912AE0269F11243019305D3193DEF6B1
S1130A00CF010895462F4770405D4193B3E00FD066
S1130A10C9F7F6CF462F4F70405D4A3318F0495D51
S1130A2031FD4052419302D0A9F7EACFB4E0A69534
S1130A309795879577956795BA95C9F70097610556
S1130A40710508959B01AC010A2E069457954795AC
S1130A5037952795BA95C9F7620F731F841F951FA1
S1130A60A01D08952F923F924F925F926F927F92B2
S1130A708F929F92AF92BF92CF92DF92EF92FF92AA
S1130A800F931F93CF93DF93CDB7DEB7CA1BDB0B56
S1130A900FB6F894DEBF0FBECDBF09942A883988FB
S1130AA048885F846E847D848C849B84AA84B98402
S1130AB0C884DF80EE80FD800C811B81AA81B9810E
S1130AC0CE0FD11D0FB6F894DEBF0FBECDBFED0122
S1090AD00895F894FFCF25
S1130AD653746F702053776974636820507265731A
S1130AE673656400456D657267656E63792053743A
S1130AF66F70204163746976617465640053797319
S1130B0674656D2048616C74656420447565207451
S1130B166F2053746F7020436F6D6D616E64007344
S1130B26797374656D2073746172740056616C76A2
S1130B36652031204F4E0056616C76652031204F7A
S1130B4646460056616C76652032204F4E0056614B
S1130B566C76652032204F46460056616C766520D9
S1130B6633204F4E0056616C76652033204F46463F
S1130B76006D6F746F7220737461727420666F7285
S1130B8677617264004144433A2025642C2050570F
S1130B964D3A202564006D6F746F72207374617210
S1130BA6742072657665727365004F75746C65742E
S1130BB62056616C7665204F4E004F75746C6574D3
S1130BC62056616C7665204F46460042757A7A65F2
S1130BD672204F4E0042757A7A6572204F4646005F
S10F0BE650524F4345535320454E4400E9
S9030000FC
