:100000000C942A000C943C000C943F000C943C008F
:100010000C943C000C943C000C943C000C943C0070
:100020000C943C000C943C000C943C000C943C0060
:100030000C943C000C943C000C943C000C943C0050
:100040000C943C000C943C000C943C000C943C0040
:100050000C943C0011241FBECFE5D8E0DEBFCDBF1D
:1000600020E0A0E6B0E001C01D92A536B207E1F79E
:100070000E943E000C9463000C940000FFCF1F927E
:100080000F920FB60F9211248F939F93809160006F
:1000900081110AC08CB59DB5909364008093630074
:1000A00081E08093600008C08CB59DB5909362009C
:1000B00080936100109260009F918F910F900FBE0E
:0A00C0000F901F901895F894FFCFE1
:00000001FF
